{
  "contractName": "Greeter",
  "abi": [
    {
      "inputs": [],
      "stateMutability": "nonpayable",
      "type": "constructor"
    },
    {
      "anonymous": false,
      "inputs": [
        {
          "indexed": true,
          "internalType": "address",
          "name": "previousOwner",
          "type": "address"
        },
        {
          "indexed": true,
          "internalType": "address",
          "name": "newOwner",
          "type": "address"
        }
      ],
      "name": "OwnershipTransferred",
      "type": "event"
    },
    {
      "inputs": [],
      "name": "owner",
      "outputs": [
        {
          "internalType": "address",
          "name": "",
          "type": "address"
        }
      ],
      "stateMutability": "view",
      "type": "function"
    },
    {
      "inputs": [],
      "name": "renounceOwnership",
      "outputs": [],
      "stateMutability": "nonpayable",
      "type": "function"
    },
    {
      "inputs": [
        {
          "internalType": "address",
          "name": "newOwner",
          "type": "address"
        }
      ],
      "name": "transferOwnership",
      "outputs": [],
      "stateMutability": "nonpayable",
      "type": "function"
    },
    {
      "inputs": [],
      "name": "greet",
      "outputs": [
        {
          "internalType": "string",
          "name": "",
          "type": "string"
        }
      ],
      "stateMutability": "view",
      "type": "function"
    },
    {
      "inputs": [
        {
          "internalType": "string",
          "name": "greeting",
          "type": "string"
        }
      ],
      "name": "setGreeting",
      "outputs": [],
      "stateMutability": "nonpayable",
      "type": "function"
    }
  ],
  "bytecode": "0x60806040526040518060400160405280600d81526020017f48656c6c6f2c20576f726c6421000000000000000000000000000000000000008152506001908051906020019061004f92919061018b565b5034801561005c57600080fd5b5061007961006e6100bf60201b60201c565b6100c760201b60201c565b33600260006101000a81548173ffffffffffffffffffffffffffffffffffffffff021916908373ffffffffffffffffffffffffffffffffffffffff16021790555061028f565b600033905090565b60008060009054906101000a900473ffffffffffffffffffffffffffffffffffffffff169050816000806101000a81548173ffffffffffffffffffffffffffffffffffffffff021916908373ffffffffffffffffffffffffffffffffffffffff1602179055508173ffffffffffffffffffffffffffffffffffffffff168173ffffffffffffffffffffffffffffffffffffffff167f8be0079c531659141344cd1fd0a4f28419497f9722a3daafe3b4186f6b6457e060405160405180910390a35050565b8280546101979061025d565b90600052602060002090601f0160209004810192826101b95760008555610200565b82601f106101d257805160ff1916838001178555610200565b82800160010185558215610200579182015b828111156101ff5782518255916020019190600101906101e4565b5b50905061020d9190610211565b5090565b5b8082111561022a576000816000905550600101610212565b5090565b7f4e487b7100000000000000000000000000000000000000000000000000000000600052602260045260246000fd5b6000600282049050600182168061027557607f821691505b602082108114156102895761028861022e565b5b50919050565b6108d78061029e6000396000f3fe608060405234801561001057600080fd5b50600436106100575760003560e01c8063715018a61461005c5780638da5cb5b14610066578063a413686214610084578063cfae3217146100a0578063f2fde38b146100be575b600080fd5b6100646100da565b005b61006e610162565b60405161007b9190610557565b60405180910390f35b61009e600480360381019061009991906105e1565b61018b565b005b6100a861021d565b6040516100b591906106c7565b60405180910390f35b6100d860048036038101906100d39190610715565b6102af565b005b6100e26103a7565b73ffffffffffffffffffffffffffffffffffffffff16610100610162565b73ffffffffffffffffffffffffffffffffffffffff1614610156576040517f08c379a000000000000000000000000000000000000000000000000000000000815260040161014d9061078e565b60405180910390fd5b61016060006103af565b565b60008060009054906101000a900473ffffffffffffffffffffffffffffffffffffffff16905090565b6101936103a7565b73ffffffffffffffffffffffffffffffffffffffff166101b1610162565b73ffffffffffffffffffffffffffffffffffffffff1614610207576040517f08c379a00000000000000000000000000000000000000000000000000000000081526004016101fe9061078e565b60405180910390fd5b818160019190610218929190610473565b505050565b60606001805461022c906107dd565b80601f0160208091040260200160405190810160405280929190818152602001828054610258906107dd565b80156102a55780601f1061027a576101008083540402835291602001916102a5565b820191906000526020600020905b81548152906001019060200180831161028857829003601f168201915b5050505050905090565b6102b76103a7565b73ffffffffffffffffffffffffffffffffffffffff166102d5610162565b73ffffffffffffffffffffffffffffffffffffffff161461032b576040517f08c379a00000000000000000000000000000000000000000000000000000000081526004016103229061078e565b60405180910390fd5b600073ffffffffffffffffffffffffffffffffffffffff168173ffffffffffffffffffffffffffffffffffffffff16141561039b576040517f08c379a000000000000000000000000000000000000000000000000000000000815260040161039290610881565b60405180910390fd5b6103a4816103af565b50565b600033905090565b60008060009054906101000a900473ffffffffffffffffffffffffffffffffffffffff169050816000806101000a81548173ffffffffffffffffffffffffffffffffffffffff021916908373ffffffffffffffffffffffffffffffffffffffff1602179055508173ffffffffffffffffffffffffffffffffffffffff168173ffffffffffffffffffffffffffffffffffffffff167f8be0079c531659141344cd1fd0a4f28419497f9722a3daafe3b4186f6b6457e060405160405180910390a35050565b82805461047f906107dd565b90600052602060002090601f0160209004810192826104a157600085556104e8565b82601f106104ba57803560ff19168380011785556104e8565b828001600101855582156104e8579182015b828111156104e75782358255916020019190600101906104cc565b5b5090506104f591906104f9565b5090565b5b808211156105125760008160009055506001016104fa565b5090565b600073ffffffffffffffffffffffffffffffffffffffff82169050919050565b600061054182610516565b9050919050565b61055181610536565b82525050565b600060208201905061056c6000830184610548565b92915050565b600080fd5b600080fd5b600080fd5b600080fd5b600080fd5b60008083601f8401126105a1576105a061057c565b5b8235905067ffffffffffffffff8111156105be576105bd610581565b5b6020830191508360018202830111156105da576105d9610586565b5b9250929050565b600080602083850312156105f8576105f7610572565b5b600083013567ffffffffffffffff81111561061657610615610577565b5b6106228582860161058b565b92509250509250929050565b600081519050919050565b600082825260208201905092915050565b60005b8381101561066857808201518184015260208101905061064d565b83811115610677576000848401525b50505050565b6000601f19601f8301169050919050565b60006106998261062e565b6106a38185610639565b93506106b381856020860161064a565b6106bc8161067d565b840191505092915050565b600060208201905081810360008301526106e1818461068e565b905092915050565b6106f281610536565b81146106fd57600080fd5b50565b60008135905061070f816106e9565b92915050565b60006020828403121561072b5761072a610572565b5b600061073984828501610700565b91505092915050565b7f4f776e61626c653a2063616c6c6572206973206e6f7420746865206f776e6572600082015250565b6000610778602083610639565b915061078382610742565b602082019050919050565b600060208201905081810360008301526107a78161076b565b9050919050565b7f4e487b7100000000000000000000000000000000000000000000000000000000600052602260045260246000fd5b600060028204905060018216806107f557607f821691505b60208210811415610809576108086107ae565b5b50919050565b7f4f776e61626c653a206e6577206f776e657220697320746865207a65726f206160008201527f6464726573730000000000000000000000000000000000000000000000000000602082015250565b600061086b602683610639565b91506108768261080f565b604082019050919050565b6000602082019050818103600083015261089a8161085e565b905091905056fea2646970667358221220437db9f8f0c99026d616af0fec0493f58068119c11392784bfb211f880cc442564736f6c634300080b0033",
  "immutableReferences": {},
  "source": "pragma solidity >= 0.4.22 < 0.9.0;\n\nimport \"@openzeppelin/contracts/access/Ownable.sol\";\n\ncontract Greeter is Ownable {\n  string private _greeting = \"Hello, World!\";\n  address private _owner;\n\n  constructor() {\n    _owner = msg.sender;\n  }\n  \n\n  function greet() external view returns (string memory) {\n    return _greeting;\n  }\n\n  function setGreeting(string calldata greeting) external onlyOwner {\n    _greeting = greeting;\n  }\n\n}",
  "sourcePath": "/home/manash/work/tero-labs/greeter/contracts/Greeter.sol",
  "compiler": {
    "name": "solc",
    "version": "0.8.11+commit.d7f03943.Emscripten.clang"
  },
  "schemaVersion": "3.4.5",
  "updatedAt": "2022-03-20T20:39:56.289Z",
  "devdoc": {
    "kind": "dev",
    "methods": {
      "owner()": {
        "details": "Returns the address of the current owner."
      },
      "renounceOwnership()": {
        "details": "Leaves the contract without owner. It will not be possible to call `onlyOwner` functions anymore. Can only be called by the current owner. NOTE: Renouncing ownership will leave the contract without an owner, thereby removing any functionality that is only available to the owner."
      },
      "transferOwnership(address)": {
        "details": "Transfers ownership of the contract to a new account (`newOwner`). Can only be called by the current owner."
      }
    },
    "version": 1
  },
  "userdoc": {
    "kind": "user",
    "methods": {},
    "version": 1
  }
}